{
  "address": "0xCf7Ed3AccA5a467e9e704C703E8D87F634fB0Fc9",
  "abi": [
    {
      "inputs": [
        {
          "internalType": "address",
          "name": "priceFeed",
          "type": "address"
        }
      ],
      "stateMutability": "nonpayable",
      "type": "constructor"
    },
    {
      "inputs": [],
      "name": "FundMe__NotOwner",
      "type": "error"
    },
    {
      "inputs": [],
      "name": "MINIMUM_USD",
      "outputs": [
        {
          "internalType": "uint256",
          "name": "",
          "type": "uint256"
        }
      ],
      "stateMutability": "view",
      "type": "function"
    },
    {
      "inputs": [],
      "name": "cheaperWithdraw",
      "outputs": [],
      "stateMutability": "nonpayable",
      "type": "function"
    },
    {
      "inputs": [],
      "name": "fund",
      "outputs": [],
      "stateMutability": "payable",
      "type": "function"
    },
    {
      "inputs": [
        {
          "internalType": "address",
          "name": "fundingAddress",
          "type": "address"
        }
      ],
      "name": "getAddressToAmountFunded",
      "outputs": [
        {
          "internalType": "uint256",
          "name": "",
          "type": "uint256"
        }
      ],
      "stateMutability": "view",
      "type": "function"
    },
    {
      "inputs": [
        {
          "internalType": "uint256",
          "name": "index",
          "type": "uint256"
        }
      ],
      "name": "getFunder",
      "outputs": [
        {
          "internalType": "address",
          "name": "",
          "type": "address"
        }
      ],
      "stateMutability": "view",
      "type": "function"
    },
    {
      "inputs": [],
      "name": "getOwner",
      "outputs": [
        {
          "internalType": "address",
          "name": "",
          "type": "address"
        }
      ],
      "stateMutability": "view",
      "type": "function"
    },
    {
      "inputs": [],
      "name": "getPriceFeed",
      "outputs": [
        {
          "internalType": "contract AggregatorV3Interface",
          "name": "",
          "type": "address"
        }
      ],
      "stateMutability": "view",
      "type": "function"
    },
    {
      "inputs": [],
      "name": "getVersion",
      "outputs": [
        {
          "internalType": "uint256",
          "name": "",
          "type": "uint256"
        }
      ],
      "stateMutability": "view",
      "type": "function"
    },
    {
      "inputs": [],
      "name": "withdraw",
      "outputs": [],
      "stateMutability": "nonpayable",
      "type": "function"
    }
  ],
  "transactionHash": "0x63da11b3b16bec32ee68cc78a0c26b72e19c0dd6198d8dc2cfe76ab8998f26a6",
  "args": [
    "0x5FbDB2315678afecb367f032d93F642f64180aa3"
  ],
  "numDeployments": 3,
  "solcInputHash": "5c4035c67e74d90b9552a53d5aa43041",
  "bytecode": "0x60a06040523480156200001157600080fd5b506040516200136a3803806200136a833981810160405281019062000037919062000120565b80600260006101000a81548173ffffffffffffffffffffffffffffffffffffffff021916908373ffffffffffffffffffffffffffffffffffffffff1602179055503373ffffffffffffffffffffffffffffffffffffffff1660808173ffffffffffffffffffffffffffffffffffffffff1660601b815250505062000152565b600080fd5b600073ffffffffffffffffffffffffffffffffffffffff82169050919050565b6000620000e882620000bb565b9050919050565b620000fa81620000db565b81146200010657600080fd5b50565b6000815190506200011a81620000ef565b92915050565b600060208284031215620001395762000138620000b6565b5b6000620001498482850162000109565b91505092915050565b60805160601c6111dd6200018d600039600081816102db0152818161046e015281816105120152818161069b015261089101526111dd6000f3fe6080604052600436106100865760003560e01c8063893d20e811610059578063893d20e8146101355780639e87a5cd14610160578063b60d42881461018b578063be2693f014610195578063d7b4750c146101ac57610086565b80630343fb251461008b5780630d8e6e2c146100c85780633ccfd60b146100f35780636b69a5921461010a575b600080fd5b34801561009757600080fd5b506100b260048036038101906100ad9190610b54565b6101e9565b6040516100bf9190610b9a565b60405180910390f35b3480156100d457600080fd5b506100dd610232565b6040516100ea9190610b9a565b60405180910390f35b3480156100ff57600080fd5b506101086102d9565b005b34801561011657600080fd5b5061011f610503565b60405161012c9190610b9a565b60405180910390f35b34801561014157600080fd5b5061014a61050e565b6040516101579190610bc4565b60405180910390f35b34801561016c57600080fd5b50610175610536565b6040516101829190610c3e565b60405180910390f35b610193610560565b005b3480156101a157600080fd5b506101aa610699565b005b3480156101b857600080fd5b506101d360048036038101906101ce9190610c85565b610927565b6040516101e09190610bc4565b60405180910390f35b6000600160008373ffffffffffffffffffffffffffffffffffffffff1673ffffffffffffffffffffffffffffffffffffffff168152602001908152602001600020549050919050565b6000600260009054906101000a900473ffffffffffffffffffffffffffffffffffffffff1673ffffffffffffffffffffffffffffffffffffffff166354fd4d506040518163ffffffff1660e01b815260040160206040518083038186803b15801561029c57600080fd5b505afa1580156102b0573d6000803e3d6000fd5b505050506040513d601f19601f820116820180604052508101906102d49190610cc7565b905090565b7f000000000000000000000000000000000000000000000000000000000000000073ffffffffffffffffffffffffffffffffffffffff163373ffffffffffffffffffffffffffffffffffffffff161461035e576040517f579610db00000000000000000000000000000000000000000000000000000000815260040160405180910390fd5b60005b60008054905081101561040957600080828154811061038357610382610cf4565b5b9060005260206000200160009054906101000a900473ffffffffffffffffffffffffffffffffffffffff1690506000600160008373ffffffffffffffffffffffffffffffffffffffff1673ffffffffffffffffffffffffffffffffffffffff1681526020019081526020016000208190555050808061040190610d52565b915050610361565b50600067ffffffffffffffff81111561042557610424610d9b565b5b6040519080825280602002602001820160405280156104535781602001602082028036833780820191505090505b5060009080519060200190610469929190610a4a565b5060007f000000000000000000000000000000000000000000000000000000000000000073ffffffffffffffffffffffffffffffffffffffff16476040516104b090610dfb565b60006040518083038185875af1925050503d80600081146104ed576040519150601f19603f3d011682016040523d82523d6000602084013e6104f2565b606091505b505090508061050057600080fd5b50565b6611c37937e0800081565b60007f0000000000000000000000000000000000000000000000000000000000000000905090565b6000600260009054906101000a900473ffffffffffffffffffffffffffffffffffffffff16905090565b6611c37937e0800061059d600260009054906101000a900473ffffffffffffffffffffffffffffffffffffffff163461096e90919063ffffffff16565b10156105de576040517f08c379a00000000000000000000000000000000000000000000000000000000081526004016105d590610e6d565b60405180910390fd5b34600160003373ffffffffffffffffffffffffffffffffffffffff1673ffffffffffffffffffffffffffffffffffffffff168152602001908152602001600020600082825461062d9190610e8d565b925050819055506000339080600181540180825580915050600190039060005260206000200160009091909190916101000a81548173ffffffffffffffffffffffffffffffffffffffff021916908373ffffffffffffffffffffffffffffffffffffffff160217905550565b7f000000000000000000000000000000000000000000000000000000000000000073ffffffffffffffffffffffffffffffffffffffff163373ffffffffffffffffffffffffffffffffffffffff161461071e576040517f579610db00000000000000000000000000000000000000000000000000000000815260040160405180910390fd5b6000808054806020026020016040519081016040528092919081815260200182805480156107a157602002820191906000526020600020905b8160009054906101000a900473ffffffffffffffffffffffffffffffffffffffff1673ffffffffffffffffffffffffffffffffffffffff1681526020019060010190808311610757575b5050505050905060005b815181101561082c5760008282815181106107c9576107c8610cf4565b5b602002602001015190506000600160008373ffffffffffffffffffffffffffffffffffffffff1673ffffffffffffffffffffffffffffffffffffffff1681526020019081526020016000208190555050808061082490610d52565b9150506107ab565b50600067ffffffffffffffff81111561084857610847610d9b565b5b6040519080825280602002602001820160405280156108765781602001602082028036833780820191505090505b506000908051906020019061088c929190610a4a565b5060007f000000000000000000000000000000000000000000000000000000000000000073ffffffffffffffffffffffffffffffffffffffff16476040516108d390610dfb565b60006040518083038185875af1925050503d8060008114610910576040519150601f19603f3d011682016040523d82523d6000602084013e610915565b606091505b505090508061092357600080fd5b5050565b600080828154811061093c5761093b610cf4565b5b9060005260206000200160009054906101000a900473ffffffffffffffffffffffffffffffffffffffff169050919050565b60008061097a836109aa565b90506000670de0b6b3a764000085836109939190610ee3565b61099d9190610f6c565b9050809250505092915050565b6000808273ffffffffffffffffffffffffffffffffffffffff1663feaf968c6040518163ffffffff1660e01b815260040160a06040518083038186803b1580156109f357600080fd5b505afa158015610a07573d6000803e3d6000fd5b505050506040513d601f19601f82011682018060405250810190610a2b9190611015565b5050509150506402540be40081610a429190611090565b915050919050565b828054828255906000526020600020908101928215610ac3579160200282015b82811115610ac25782518260006101000a81548173ffffffffffffffffffffffffffffffffffffffff021916908373ffffffffffffffffffffffffffffffffffffffff16021790555091602001919060010190610a6a565b5b509050610ad09190610ad4565b5090565b5b80821115610aed576000816000905550600101610ad5565b5090565b600080fd5b600073ffffffffffffffffffffffffffffffffffffffff82169050919050565b6000610b2182610af6565b9050919050565b610b3181610b16565b8114610b3c57600080fd5b50565b600081359050610b4e81610b28565b92915050565b600060208284031215610b6a57610b69610af1565b5b6000610b7884828501610b3f565b91505092915050565b6000819050919050565b610b9481610b81565b82525050565b6000602082019050610baf6000830184610b8b565b92915050565b610bbe81610b16565b82525050565b6000602082019050610bd96000830184610bb5565b92915050565b6000819050919050565b6000610c04610bff610bfa84610af6565b610bdf565b610af6565b9050919050565b6000610c1682610be9565b9050919050565b6000610c2882610c0b565b9050919050565b610c3881610c1d565b82525050565b6000602082019050610c536000830184610c2f565b92915050565b610c6281610b81565b8114610c6d57600080fd5b50565b600081359050610c7f81610c59565b92915050565b600060208284031215610c9b57610c9a610af1565b5b6000610ca984828501610c70565b91505092915050565b600081519050610cc181610c59565b92915050565b600060208284031215610cdd57610cdc610af1565b5b6000610ceb84828501610cb2565b91505092915050565b7f4e487b7100000000000000000000000000000000000000000000000000000000600052603260045260246000fd5b7f4e487b7100000000000000000000000000000000000000000000000000000000600052601160045260246000fd5b6000610d5d82610b81565b91507fffffffffffffffffffffffffffffffffffffffffffffffffffffffffffffffff821415610d9057610d8f610d23565b5b600182019050919050565b7f4e487b7100000000000000000000000000000000000000000000000000000000600052604160045260246000fd5b600081905092915050565b50565b6000610de5600083610dca565b9150610df082610dd5565b600082019050919050565b6000610e0682610dd8565b9150819050919050565b600082825260208201905092915050565b7f596f75206e65656420746f207370656e64206d6f726520455448210000000000600082015250565b6000610e57601b83610e10565b9150610e6282610e21565b602082019050919050565b60006020820190508181036000830152610e8681610e4a565b9050919050565b6000610e9882610b81565b9150610ea383610b81565b9250827fffffffffffffffffffffffffffffffffffffffffffffffffffffffffffffffff03821115610ed857610ed7610d23565b5b828201905092915050565b6000610eee82610b81565b9150610ef983610b81565b9250817fffffffffffffffffffffffffffffffffffffffffffffffffffffffffffffffff0483118215151615610f3257610f31610d23565b5b828202905092915050565b7f4e487b7100000000000000000000000000000000000000000000000000000000600052601260045260246000fd5b6000610f7782610b81565b9150610f8283610b81565b925082610f9257610f91610f3d565b5b828204905092915050565b600069ffffffffffffffffffff82169050919050565b610fbc81610f9d565b8114610fc757600080fd5b50565b600081519050610fd981610fb3565b92915050565b6000819050919050565b610ff281610fdf565b8114610ffd57600080fd5b50565b60008151905061100f81610fe9565b92915050565b600080600080600060a0868803121561103157611030610af1565b5b600061103f88828901610fca565b955050602061105088828901611000565b945050604061106188828901610cb2565b935050606061107288828901610cb2565b925050608061108388828901610fca565b9150509295509295909350565b600061109b82610fdf565b91506110a683610fdf565b9250827f7fffffffffffffffffffffffffffffffffffffffffffffffffffffffffffffff04821160008413600084131616156110e5576110e4610d23565b5b817f8000000000000000000000000000000000000000000000000000000000000000058312600084126000841316161561112257611121610d23565b5b827f8000000000000000000000000000000000000000000000000000000000000000058212600084136000841216161561115f5761115e610d23565b5b827f7fffffffffffffffffffffffffffffffffffffffffffffffffffffffffffffff058212600084126000841216161561119c5761119b610d23565b5b82820290509291505056fea2646970667358221220dc8eef97ac2c2dc258dd684481bbc58fd658a28372db7511222fb14d0ad312d764736f6c63430008080033",
  "devdoc": {
    "author": "Patrick Collins",
    "details": "This implements price feeds as our library",
    "kind": "dev",
    "methods": {
      "getAddressToAmountFunded(address)": {
        "params": {
          "fundingAddress": "the address of the funder"
        },
        "returns": {
          "_0": "the amount funded"
        }
      }
    },
    "title": "A sample Funding Contract",
    "version": 1
  },
  "userdoc": {
    "kind": "user",
    "methods": {
      "fund()": {
        "notice": "Funds our contract based on the ETH/USD price"
      },
      "getAddressToAmountFunded(address)": {
        "notice": "Gets the amount that an address has funded"
      }
    },
    "notice": "This contract is for creating a sample funding contract",
    "version": 1
  },
  "storageLayout": {
    "storage": [
      {
        "astId": 67,
        "contract": "contracts/FundMe.sol:FundMe",
        "label": "s_funders",
        "offset": 0,
        "slot": "0",
        "type": "t_array(t_address)dyn_storage"
      },
      {
        "astId": 71,
        "contract": "contracts/FundMe.sol:FundMe",
        "label": "s_addressToAmountFunded",
        "offset": 0,
        "slot": "1",
        "type": "t_mapping(t_address,t_uint256)"
      },
      {
        "astId": 74,
        "contract": "contracts/FundMe.sol:FundMe",
        "label": "s_priceFeed",
        "offset": 0,
        "slot": "2",
        "type": "t_contract(AggregatorV3Interface)45"
      }
    ],
    "types": {
      "t_address": {
        "encoding": "inplace",
        "label": "address",
        "numberOfBytes": "20"
      },
      "t_array(t_address)dyn_storage": {
        "base": "t_address",
        "encoding": "dynamic_array",
        "label": "address[]",
        "numberOfBytes": "32"
      },
      "t_contract(AggregatorV3Interface)45": {
        "encoding": "inplace",
        "label": "contract AggregatorV3Interface",
        "numberOfBytes": "20"
      },
      "t_mapping(t_address,t_uint256)": {
        "encoding": "mapping",
        "key": "t_address",
        "label": "mapping(address => uint256)",
        "numberOfBytes": "32",
        "value": "t_uint256"
      },
      "t_uint256": {
        "encoding": "inplace",
        "label": "uint256",
        "numberOfBytes": "32"
      }
    }
  }
}